:020000040800F2
:1000000000000220FD0A00084B0B00084D0B000801
:100010004F0B0008510B0008530B000800000000B4
:10002000000000000000000000000000550B000868
:10003000570B000800000000590B0008910A000847
:100040005F0B0008610B0008630B0008650B0008DC
:10005000670B0008690B00086B0B00086D0B0008AC
:100060006F0B0008710B0008730B0008750B00087C
:10007000770B0008790B00087B0B00087D0B00084C
:100080007F0B0008810B0008830B0008850B00081C
:10009000870B0008890B00088B0B00088D0B0008EC
:1000A0008F0B0008910B0008930B0008950B0008BC
:1000B000970B0008990B00089B0B00089D0B00088C
:1000C0009F0B0008A10B0008A30B0008A50B00085C
:1000D000A70B0008A90B0008AB0B0008AD0B00082C
:1000E000AF0B0008B10B0008B30B0008B50B0008FC
:1000F000B70B0008B90B0008BB0B0008BD0B0008CC
:10010000BF0B0008C10B0008C30B0008C50B00089B
:10011000C70B0008C90B0008CB0B0008CD0B00086B
:10012000CF0B0008D10B0008D30B0008D50B00083B
:10013000D70B0008D90B0008DB0B0008DD0B00080B
:10014000DF0B0008E10B0008E30B0008E50B0008DB
:10015000E70B0008E90B0008EB0B0008ED0B0008AB
:10016000EF0B0008F10B0008F30B0008F50B00087B
:10017000F70B0008F90B0008FB0B0008FD0B00084B
:10018000FF0B0008010C000810B5054C237833B9AB
:10019000044B13B10448AFF300800123237010BD5A
:1001A0007800002000000000340F000808B5064B5E
:1001B0001BB106480649AFF300800648036813B137
:1001C000054B03B1984708BD00000000340F00083C
:1001D0007C0000207800002000000000154B002B60
:1001E00008BF134B9D46A3F5803A00218B460F466E
:1001F0001348144A121A00F083FE0F4B002B00D054
:1002000098470E4B002B00D0984700200021044651
:100210000D4600200C490022002300F013FE00F0E0
:1002200049FE2046294600F01DFB00F015FE00BFE8
:100230000000080000000220000000000000000094
:100240007800002096000020850E000880B487B05A
:1002500000AF786039604FF000037B614FF000031E
:100260003B614FF00003FB604FF000037B6186E0D1
:100270007B694FF0010202FA03F33B613B681A68A5
:100280003B691340FB60FA683B699A4273D17B6813
:100290001A687B694FEA43034FF0030101FA03F345
:1002A0006FEA03031A407B681A607B681A683B6830
:1002B0001B7919467B694FEA430301FA03F31A439A
:1002C0007B681A603B681B79012B03D03B681B7964
:1002D000022B34D17B689A687B694FEA43034FF065
:1002E000030101FA03F36FEA03031A407B689A6083
:1002F0007B689A683B685B7919467B694FEA4303E0
:1003000001FA03F31A437B689A607B685A687B6939
:100310009BB24FF0010101FA03F36FEA03031A40A5
:100320007B685A607B685A683B689B7919467B6991
:100330009BB201FA03F39BB21A437B685A607B6855
:10034000DA687B699BB24FEA43034FF0030101FA7D
:1003500003F36FEA03031A407B68DA607B68DA68AC
:100360003B68DB7919467B694FEA430301FA03F3E3
:100370001A437B68DA607B6903F101037B617B6967
:100380000F2B7FF675AF07F11C07BD4680BC704789
:1003900080B485B000AF786013460A467A807B70DF
:1003A0004FF00003FB604FF00003BB607A787B885E
:1003B00003F007034FEA830302FA03F3FB607B8831
:1003C0004FEAD3039BB21A467B884FEAD3039BB212
:1003D00019467B6801F1080153F821107B8803F06E
:1003E00007034FEA83034FF00F0000FA03F36FEAAD
:1003F000030319407B6802F1080243F822107B884E
:100400004FEAD3039BB21A467B6802F1080253F805
:100410002220FB681343BB607B884FEAD3039BB267
:100420001A467B6802F10802B96843F8221007F106
:100430001407BD4680BC704780B483B000AF7860BD
:100440000B46FB70FB78002B0CD04FF46053C4F2CA
:1004500002034FF46052C4F20202116B7A680A433D
:100460001A630DE04FF46053C4F202034FF460527C
:10047000C4F20202116B7A686FEA02020A401A6340
:1004800007F10C07BD4680BC704700BF80B483B045
:1004900000AF78600B46FB70FB78002B0CD04FF45C
:1004A0006053C4F202034FF46052C4F20202116CB2
:1004B0007A680A431A640DE04FF46053C4F20203F1
:1004C0004FF46052C4F20202116C7A686FEA0202C1
:1004D0000A401A6407F10C07BD4680BC704700BF94
:1004E00080B485B000AF786039604FF00003FB81C5
:1004F0007B681B88FB817A684FF00003C4F201031C
:100500009A421FD07A684FF48063C4F201039A4282
:1005100018D07B68B3F1804F14D07A684FF48063B1
:10052000C4F200039A420DD07A684FF40063C4F21B
:1005300000039A4206D07A684FF44063C4F2000385
:100540009A4208D1FB8923F07003FB813B685A88EB
:10055000FB891343FB817A684FF48053C4F2000394
:100560009A420FD07A684FF4A053C4F200039A4223
:1005700008D0FB8923F44073FB813B681A89FB890F
:100580001343FB817B68FA891A803B685A687B6851
:10059000DA623B681A887B681A857A684FF0000334
:1005A000C4F201039A4206D07A684FF48063C4F221
:1005B00001039A4204D13B689B7A1A467B681A86EB
:1005C0007B684FF001029A8207F11407BD4680BC98
:1005D000704700BF80B483B000AF78600B46FB70FB
:1005E000FB78002B08D07B681B889BB243F080030C
:1005F0009AB27B681A8007E07B681B889BB223F065
:1006000080039AB27B681A8007F10C07BD4680BC54
:10061000704700BF80B483B000AF78600B46FB70BA
:10062000FB78002B08D07B681B889BB243F001034A
:100630009AB27B681A8007E07B681B889BB223F024
:1006400001039AB27B681A8007F10C07BD4680BC93
:10065000704700BF80B485B000AF786039604FF05C
:1006600000037B814FF00003FB814FF00003BB814F
:100670007B681B8C9BB223F001039AB27B681A84BF
:100680007B681B8CFB817B689B88BB817B681B8B99
:100690007B817B8923F070037B817B8923F00303BB
:1006A0007B813B681A887B8913437B81FB8923F01C
:1006B0000203FB813B689A89FB891343FB813B68FA
:1006C0005A88FB891343FB817A684FF00003C4F218
:1006D00001039A4206D07A684FF48063C4F20103A2
:1006E0009A4223D1FB8923F00803FB813B68DA8916
:1006F000FB891343FB81FB8923F00403FB813B68E7
:100700009A88FB891343FB81BB8923F48073BB81E7
:10071000BB8923F40073BB813B681A8ABB891343EE
:10072000BB813B685A8ABB891343BB817B68BA890A
:100730009A807B687A891A833B689A687B685A63D7
:100740007B68FA891A8407F11407BD4680BC70479C
:1007500080B483B000AF786039607B683A685A63D0
:1007600007F10C07BD4680BC704700BF80B485B060
:1007700000AF78600B467B804FF00003FB817B6805
:100780001B8BFB81FB8923F00803FB81FA897B88A3
:100790001343FB817B68FA891A8307F11407BD466E
:1007A00080BC704780B483B000AF03463960FB71F2
:1007B00097F90730002B10DA4FF46D43CEF20003A7
:1007C000FA7902F00F02A2F104013A68D2B24FEABC
:1007D0000212D2B25B181A760DE04FF46143CEF2EA
:1007E000000397F907103A68D2B24FEA0212D2B268
:1007F0005B1883F8002307F10C07BD4680BC7047E7
:1008000080B582B000AF78607A686FF07F439A421B
:1008100002D94FF001031FE04EF21003CEF20003A5
:100820007A6822F07F4202F1FF325A604FF0FF30C7
:100830004FF00F01FFF7B6FF4EF21003CEF20003A8
:100840004FF000029A604EF21003CEF200034FF018
:1008500007021A604FF00003184607F10807BD466B
:1008600080BD00BF80B58AB000AF00F0CFF940F284
:100870000803C2F200031A6844F6D353C1F26203BC
:10088000A3FB02134FEA93131846FFF7B9FF00F0DA
:100890007BF840F20403C2F200031A6840F200033E
:1008A000C2F200031B881046194600F0A1F84FF071
:1008B0000003FB614FF00003BB614FF000037B615D
:1008C0004FF000033B614FF0010387F827304FF0F2
:1008D0000103FB734FF00103BB734FF001037B7304
:1008E0004FF000033B624FF4FA73BB604FF000031C
:1008F0007B604FF000033B623A6A13464FEA830382
:100900009B184FEA43031A46BB68D3187B604FF429
:100910008060C4F200007968FFF71AFF4FF4FA60B4
:1009200000F0D2F897F82730002B0BD03B6A03F188
:1009300001033B623B6AB32B0FD94FF0000387F8EA
:1009400027300AE03B6A03F1FF333B623B6A002B2E
:1009500003D14FF0010387F827303A6A13464FEA74
:1009600083039B184FEA43031A46BB68D3187B6086
:100970004FF48060C4F200007968FFF7E9FE4FF0A1
:100980000A0000F0A1F8CDE780B582B000AF4FF0CB
:1009900002004FF00101FFF779FD4FF004004FF026
:1009A0000101FFF749FD4FF040033B604FF00203A8
:1009B0003B714FF003037B714FF00003BB714FF0AD
:1009C0000103FB713B464FF40060C4F2020019467C
:1009D000FFF73CFC4FF40060C4F202004FF0060148
:1009E0004FF00202FFF7D4FC07F10807BD4680BDB7
:1009F00080B58AB000AF78600B467B807B6803F1DE
:100A0000FF333B627B8803F1FF339BB2BB834FF024
:100A10000003BB844FF00003FB8307F11C034FF47A
:100A20008060C4F200001946FFF75AFD4FF06003E2
:100A30003B814FF00003BB824FF001037B814FF0FD
:100A400000033B6107F108034FF48060C4F200002B
:100A50001946FFF7FFFD4FF48060C4F200004FF02D
:100A60000801FFF783FE4FF48060C4F200004FF0EE
:100A70000101FFF7AFFD4FF48060C4F200004FF0BA
:100A80000101FFF7C7FD07F12807BD4680BD00BF84
:100A900080B400AF40F29403C2F200031B889BB203
:100AA000002B0DD040F29403C2F200031B889BB2CE
:100AB00003F1FF339AB240F29403C2F200031A80AA
:100AC000BD4680BC704700BF80B483B000AF786083
:100AD0007B689AB240F29403C2F200031A8000BF0E
:100AE00040F29403C2F200031B889BB2002BF7D1A3
:100AF00007F10C07BD4680BC704700BF0749084A94
:100B0000084B9A42BEBF51F8040B42F8040BFFF7A2
:100B1000F8BF05488047054800470000400F00081F
:100B200000000020780000200D0C0008DD01000806
:100B30003449354A002300F002B841F8043B9142A1
:100B4000FFF4FBAFFFF78EFEFEE7FEE7FEE7FEE7F2
:100B5000FEE7FEE7FEE7FEE7FEE7FEE7FEE7FEE76D
:100B6000FEE7FEE7FEE7FEE7FEE7FEE7FEE7FEE75D
:100B7000FEE7FEE7FEE7FEE7FEE7FEE7FEE7FEE74D
:100B8000FEE7FEE7FEE7FEE7FEE7FEE7FEE7FEE73D
:100B9000FEE7FEE7FEE7FEE7FEE7FEE7FEE7FEE72D
:100BA000FEE7FEE7FEE7FEE7FEE7FEE7FEE7FEE71D
:100BB000FEE7FEE7FEE7FEE7FEE7FEE7FEE7FEE70D
:100BC000FEE7FEE7FEE7FEE7FEE7FEE7FEE7FEE7FD
:100BD000FEE7FEE7FEE7FEE7FEE7FEE7FEE7FEE7ED
:100BE000FEE7FEE7FEE7FEE7FEE7FEE7FEE7FEE7DD
:100BF000FEE7FEE7FEE7FEE7FEE7FEE7FEE7FEE7CD
:100C0000FEE70000780000209600002080B500AFCD
:100C10004FF46D43CEF200034FF46D42CEF200026A
:100C2000D2F8882042F47002C3F888204FF4605351
:100C3000C4F202034FF46052C4F20202126842F09E
:100C400001021A604FF46053C4F202034FF0000235
:100C50009A604FF46053C4F202034FF46052C4F23E
:100C60000202126822F0847222F480321A604FF479
:100C70006053C4F2020343F21002C2F200425A600F
:100C80004FF46053C4F202034FF46052C4F2020204
:100C9000126822F480221A604FF46053C4F20203F7
:100CA0004FF00002DA6000F009F84FF46D43CEF225
:100CB00000034FF000629A6080BD00BF80B483B033
:100CC00000AF4FF000037B604FF000033B604FF438
:100CD0006053C4F202034FF46052C4F2020212687D
:100CE00042F480321A604FF46053C4F202031B686E
:100CF00003F400333B607B6803F101037B603B68D6
:100D0000002B03D17B68B3F5C06FECD14FF4605377
:100D1000C4F202031B6803F40033002B03D04FF02E
:100D200001033B6002E04FF000033B603B68012B96
:100D300040F082804FF46053C4F202034FF46052DB
:100D4000C4F20202126C42F080521A644FF4E04383
:100D5000C4F200034FF4E042C4F20002126842F40D
:100D600080421A604FF46053C4F202034FF46052A1
:100D7000C4F2020292689A604FF46053C4F2020314
:100D80004FF46052C4F20202926842F400429A6048
:100D90004FF46053C4F202034FF46052C4F20202F3
:100DA000926842F4A0529A604FF46053C4F2020376
:100DB00045F20842C0F240725A604FF46053C4F2E8
:100DC00002034FF46052C4F20202126842F08072D1
:100DD0001A6000BF4FF46053C4F202031B6803F0B3
:100DE0000073002BF6D04FF47053C4F2020340F2AC
:100DF00005721A604FF46053C4F202034FF460525C
:100E0000C4F20202926822F003029A604FF4605327
:100E1000C4F202034FF46052C4F20202926842F03C
:100E200002029A6000BF4FF46053C4F202039B6851
:100E300003F00C03082BF6D107F10C07BD4680BC6C
:100E4000704700BF10B5034C14B1AFF3008010BD64
:100E5000204610BD0000000008B5084B04461BB139
:100E60000021AFF3008001E000F00CF8044B18689B
:100E7000836A03B19847204600F04AF8000000005A
:100E8000300F000870B5094B094CE41AA41003EBAD
:100E90008406002502E072599047013C043D002C75
:100EA000F9D1BDE8704000F03BB800BF74000020ED
:100EB0007800002070B50E4B0E4DED1AAD100024D9
:100EC0001E4603E056F8242090470134AC42F9D185
:100ED00000F020F8084D094BED1AAD1000241E4615
:100EE00003E056F8242090470134AC42F9D170BD9C
:100EF00070000020700000207400002070000020AE
:100F00008218034601E003F8011B9342FBD17047AE
:100F1000FEE700BFF8B500BFF8BC08BC9E467047AE
:100F2000F8B500BFF8BC08BC9E46704743000000FF
:080F30000C000020000000008D
:080F3800A4F2FF7F010000009C
:100F400054000000204E0000007A030A0000000058
:100F50000000000000000000000000000000000091
:100F60000000000000000000000000002C0F00083E
:100F70000000000000000000000000000000000071
:100F80000000000000000000000000000000000061
:100F90000000000000000000000000000000000051
:100FA0000000000000000000000000000000000041
:080FB000AD01000889010008F1
:04000005080001DC12
:00000001FF
